S01C000041544D65676133325F4156525F50726F6A6563742E7372656316
S11300000C942A000C9434000C9434000C943400A6
S11300100C9434000C9434000C9434000C9434008C
S11300200C9434000C9434000C9434000C9434007C
S11300300C9434000C9434000C9434000C9434006C
S11300400C9434000C9434000C9434000C9434005C
S11300500C94340011241FBECFE5D8E0DEBFCDBF21
S11300600E9436000C9466010C94000041E060E0AC
S113007084E00E94720041E061E084E00E9472002A
S113008041E062E084E00E94720041E063E084E0C9
S11300900E94720041E064E084E00E94720041E04A
S11300A065E084E00E94720041E066E084E00E9422
S11300B0720041E067E084E00E947200C0E00FC07B
S11300C041E06C2F84E00E94EC002FEF89E698E178
S11300D0215080409040E1F700C00000CF5FC8305D
S11300E078F3FFCF823031F118F4813039F008957C
S11300F08330E1F1843009F454C00895442371F04D
S1130100413009F068C02AB381E090E002C0880F52
S1130110991F6A95E2F7822B8ABB08952AB381E07E
S113012090E002C0880F991F6A95E2F780958223B8
S11301308ABB0895442371F0413009F04CC027B3C1
S113014081E090E002C0880F991F6A95E2F7822B44
S113015087BB089527B381E090E002C0880F991F00
S11301606A95E2F78095822387BB0895442369F05A
S1130170413089F524B381E090E002C0880F991FD3
S11301806A95E2F7822B84BB089524B381E090E062
S113019002C0880F991F6A95E2F78095822384BB79
S11301A00895442369F04130B1F421B381E090E033
S11301B002C0880F991F6A95E2F7822B81BB0895CC
S11301C021B381E090E002C0880F991F6A95E2F79D
S11301D08095822381BB0895823031F118F48130F7
S11301E039F008958330E1F1843009F454C008955E
S11301F0442371F0413009F068C02BB381E090E0F2
S113020002C0880F991F6A95E2F7822B8BBB089571
S11302102BB381E090E002C0880F991F6A95E2F742
S1130220809582238BBB0895442371F0413009F0FB
S11302304CC028B381E090E002C0880F991F6A95F2
S1130240E2F7822B88BB089528B381E090E002C0D6
S1130250880F991F6A95E2F78095822388BB0895D9
S1130260442369F0413089F525B381E090E002C070
S1130270880F991F6A95E2F7822B85BB089525B3F1
S113028081E090E002C0880F991F6A95E2F780959B
S1130290822385BB0895442369F04130B1F422B32D
S11302A081E090E002C0880F991F6A95E2F7822BE3
S11302B082BB089522B381E090E002C0880F991FA9
S11302C06A95E2F78095822382BB0895F894FFCF64
S9030000FC
